{
  "_format": "hh-sol-artifact-1",
  "contractName": "TurboRacers",
  "sourceName": "contracts/TurboRacers.sol",
  "abi": [
    {
      "inputs": [],
      "stateMutability": "nonpayable",
      "type": "constructor"
    },
    {
      "inputs": [
        {
          "internalType": "address",
          "name": "owner",
          "type": "address"
        }
      ],
      "name": "OwnableInvalidOwner",
      "type": "error"
    },
    {
      "inputs": [
        {
          "internalType": "address",
          "name": "account",
          "type": "address"
        }
      ],
      "name": "OwnableUnauthorizedAccount",
      "type": "error"
    },
    {
      "anonymous": false,
      "inputs": [
        {
          "indexed": true,
          "internalType": "address",
          "name": "previousOwner",
          "type": "address"
        },
        {
          "indexed": true,
          "internalType": "address",
          "name": "newOwner",
          "type": "address"
        }
      ],
      "name": "OwnershipTransferred",
      "type": "event"
    },
    {
      "anonymous": false,
      "inputs": [
        {
          "indexed": true,
          "internalType": "uint256",
          "name": "id",
          "type": "uint256"
        },
        {
          "indexed": false,
          "internalType": "uint256",
          "name": "oldPrice",
          "type": "uint256"
        },
        {
          "indexed": false,
          "internalType": "uint256",
          "name": "newPrice",
          "type": "uint256"
        },
        {
          "indexed": true,
          "internalType": "address",
          "name": "by",
          "type": "address"
        }
      ],
      "name": "PriceUpdated",
      "type": "event"
    },
    {
      "anonymous": false,
      "inputs": [
        {
          "indexed": true,
          "internalType": "address",
          "name": "previousUpdater",
          "type": "address"
        },
        {
          "indexed": true,
          "internalType": "address",
          "name": "newUpdater",
          "type": "address"
        }
      ],
      "name": "PriceUpdaterChanged",
      "type": "event"
    },
    {
      "anonymous": false,
      "inputs": [
        {
          "indexed": true,
          "internalType": "uint256",
          "name": "id",
          "type": "uint256"
        },
        {
          "indexed": false,
          "internalType": "string",
          "name": "name",
          "type": "string"
        },
        {
          "indexed": false,
          "internalType": "uint256",
          "name": "price",
          "type": "uint256"
        }
      ],
      "name": "RacerMinted",
      "type": "event"
    },
    {
      "inputs": [],
      "name": "getAllRacerIds",
      "outputs": [
        {
          "internalType": "uint256[]",
          "name": "",
          "type": "uint256[]"
        }
      ],
      "stateMutability": "view",
      "type": "function"
    },
    {
      "inputs": [
        {
          "internalType": "uint256",
          "name": "id",
          "type": "uint256"
        }
      ],
      "name": "getRacer",
      "outputs": [
        {
          "internalType": "uint256",
          "name": "",
          "type": "uint256"
        },
        {
          "internalType": "string",
          "name": "",
          "type": "string"
        },
        {
          "internalType": "uint8",
          "name": "",
          "type": "uint8"
        },
        {
          "internalType": "uint8",
          "name": "",
          "type": "uint8"
        },
        {
          "internalType": "uint8",
          "name": "",
          "type": "uint8"
        },
        {
          "internalType": "uint256",
          "name": "",
          "type": "uint256"
        }
      ],
      "stateMutability": "view",
      "type": "function"
    },
    {
      "inputs": [
        {
          "internalType": "string",
          "name": "_name",
          "type": "string"
        },
        {
          "internalType": "uint8",
          "name": "_speed",
          "type": "uint8"
        },
        {
          "internalType": "uint8",
          "name": "_aggression",
          "type": "uint8"
        },
        {
          "internalType": "uint8",
          "name": "_consistency",
          "type": "uint8"
        },
        {
          "internalType": "uint256",
          "name": "_initialPrice",
          "type": "uint256"
        }
      ],
      "name": "mintRacer",
      "outputs": [],
      "stateMutability": "nonpayable",
      "type": "function"
    },
    {
      "inputs": [],
      "name": "nextId",
      "outputs": [
        {
          "internalType": "uint256",
          "name": "",
          "type": "uint256"
        }
      ],
      "stateMutability": "view",
      "type": "function"
    },
    {
      "inputs": [],
      "name": "owner",
      "outputs": [
        {
          "internalType": "address",
          "name": "",
          "type": "address"
        }
      ],
      "stateMutability": "view",
      "type": "function"
    },
    {
      "inputs": [],
      "name": "priceUpdater",
      "outputs": [
        {
          "internalType": "address",
          "name": "",
          "type": "address"
        }
      ],
      "stateMutability": "view",
      "type": "function"
    },
    {
      "inputs": [],
      "name": "racerCount",
      "outputs": [
        {
          "internalType": "uint256",
          "name": "",
          "type": "uint256"
        }
      ],
      "stateMutability": "view",
      "type": "function"
    },
    {
      "inputs": [],
      "name": "renounceOwnership",
      "outputs": [],
      "stateMutability": "nonpayable",
      "type": "function"
    },
    {
      "inputs": [
        {
          "internalType": "address",
          "name": "_updater",
          "type": "address"
        }
      ],
      "name": "setPriceUpdater",
      "outputs": [],
      "stateMutability": "nonpayable",
      "type": "function"
    },
    {
      "inputs": [
        {
          "internalType": "address",
          "name": "newOwner",
          "type": "address"
        }
      ],
      "name": "transferOwnership",
      "outputs": [],
      "stateMutability": "nonpayable",
      "type": "function"
    },
    {
      "inputs": [
        {
          "internalType": "uint256",
          "name": "id",
          "type": "uint256"
        },
        {
          "internalType": "uint256",
          "name": "newPrice",
          "type": "uint256"
        }
      ],
      "name": "updatePrice",
      "outputs": [],
      "stateMutability": "nonpayable",
      "type": "function"
    }
  ],
  "bytecode": "0x60806040523480156200001157600080fd5b5033600073ffffffffffffffffffffffffffffffffffffffff168173ffffffffffffffffffffffffffffffffffffffff1603620000885760006040517f1e4fbdf70000000000000000000000000000000000000000000000000000000081526004016200007f919062000229565b60405180910390fd5b6200009981620000f760201b60201c565b5060018081905550620000b1620001bb60201b60201c565b600460006101000a81548173ffffffffffffffffffffffffffffffffffffffff021916908373ffffffffffffffffffffffffffffffffffffffff16021790555062000246565b60008060009054906101000a900473ffffffffffffffffffffffffffffffffffffffff169050816000806101000a81548173ffffffffffffffffffffffffffffffffffffffff021916908373ffffffffffffffffffffffffffffffffffffffff1602179055508173ffffffffffffffffffffffffffffffffffffffff168173ffffffffffffffffffffffffffffffffffffffff167f8be0079c531659141344cd1fd0a4f28419497f9722a3daafe3b4186f6b6457e060405160405180910390a35050565b60008060009054906101000a900473ffffffffffffffffffffffffffffffffffffffff16905090565b600073ffffffffffffffffffffffffffffffffffffffff82169050919050565b60006200021182620001e4565b9050919050565b620002238162000204565b82525050565b600060208201905062000240600083018462000218565b92915050565b61145c80620002566000396000f3fe608060405234801561001057600080fd5b50600436106100a95760003560e01c80638da5cb5b116100715780638da5cb5b1461012c57806392af06331461014a57806397c4a5f31461017f578063ee8e1bb01461019b578063f2fde38b146101b9578063fc612a8d146101d5576100a9565b80630fd2e0fb146100ae57806314150f00146100ca57806361b8ce8c146100e8578063715018a61461010657806382367b2d14610110575b600080fd5b6100c860048036038101906100c39190610be7565b6101f3565b005b6100d2610383565b6040516100df9190610c8d565b60405180910390f35b6100f0610390565b6040516100fd9190610c8d565b60405180910390f35b61010e610396565b005b61012a60048036038101906101259190610ca8565b6103aa565b005b610134610566565b6040516101419190610d29565b60405180910390f35b610164600480360381019061015f9190610d44565b61058f565b60405161017696959493929190610dff565b60405180910390f35b61019960048036038101906101949190610e93565b6106f9565b005b6101a36107c7565b6040516101b09190610f7e565b60405180910390f35b6101d360048036038101906101ce9190610e93565b61081f565b005b6101dd6108a5565b6040516101ea9190610d29565b60405180910390f35b6101fb6108cb565b60006001600081548092919061021090610fcf565b9190505590506040518060e001604052808281526020018781526020018660ff1681526020018560ff1681526020018460ff16815260200183815260200160011515815250600260008381526020019081526020016000206000820151816000015560208201518160010190816102879190611223565b5060408201518160020160006101000a81548160ff021916908360ff16021790555060608201518160020160016101000a81548160ff021916908360ff16021790555060808201518160020160026101000a81548160ff021916908360ff16021790555060a0820151816003015560c08201518160040160006101000a81548160ff0219169083151502179055509050506003819080600181540180825580915050600190039060005260206000200160009091909190915055807fbc425c12369280a5760483a393b20900b5785dc86a5e93d032befb05512a9acf87846040516103739291906112f5565b60405180910390a2505050505050565b6000600380549050905090565b60015481565b61039e6108cb565b6103a86000610952565b565b6103b2610566565b73ffffffffffffffffffffffffffffffffffffffff163373ffffffffffffffffffffffffffffffffffffffff1614806104385750600460009054906101000a900473ffffffffffffffffffffffffffffffffffffffff1673ffffffffffffffffffffffffffffffffffffffff163373ffffffffffffffffffffffffffffffffffffffff16145b610477576040517f08c379a000000000000000000000000000000000000000000000000000000000815260040161046e90611371565b60405180910390fd5b6002600083815260200190815260200160002060040160009054906101000a900460ff166104da576040517f08c379a00000000000000000000000000000000000000000000000000000000081526004016104d1906113dd565b60405180910390fd5b6000600260008481526020019081526020016000206003015490508160026000858152602001908152602001600020600301819055503373ffffffffffffffffffffffffffffffffffffffff16837f4f0aa5fab7aa20059cc56368985fcf440c02c1d0229156bcfefad462cae1893d83856040516105599291906113fd565b60405180910390a3505050565b60008060009054906101000a900473ffffffffffffffffffffffffffffffffffffffff16905090565b600060606000806000806002600088815260200190815260200160002060040160009054906101000a900460ff166105fc576040517f08c379a00000000000000000000000000000000000000000000000000000000081526004016105f3906113dd565b60405180910390fd5b60006002600089815260200190815260200160002090508060000154816001018260020160009054906101000a900460ff168360020160019054906101000a900460ff168460020160029054906101000a900460ff16856003015484805461066390611046565b80601f016020809104026020016040519081016040528092919081815260200182805461068f90611046565b80156106dc5780601f106106b1576101008083540402835291602001916106dc565b820191906000526020600020905b8154815290600101906020018083116106bf57829003601f168201915b505050505094509650965096509650965096505091939550919395565b6107016108cb565b6000600460009054906101000a900473ffffffffffffffffffffffffffffffffffffffff16905081600460006101000a81548173ffffffffffffffffffffffffffffffffffffffff021916908373ffffffffffffffffffffffffffffffffffffffff1602179055508173ffffffffffffffffffffffffffffffffffffffff168173ffffffffffffffffffffffffffffffffffffffff167fba4f0caaa7dc549eceeaded00e5639f278ee9cdb8ee6027985947274d2330bb860405160405180910390a35050565b6060600380548060200260200160405190810160405280929190818152602001828054801561081557602002820191906000526020600020905b815481526020019060010190808311610801575b5050505050905090565b6108276108cb565b600073ffffffffffffffffffffffffffffffffffffffff168173ffffffffffffffffffffffffffffffffffffffff16036108995760006040517f1e4fbdf70000000000000000000000000000000000000000000000000000000081526004016108909190610d29565b60405180910390fd5b6108a281610952565b50565b600460009054906101000a900473ffffffffffffffffffffffffffffffffffffffff1681565b6108d3610a16565b73ffffffffffffffffffffffffffffffffffffffff166108f1610566565b73ffffffffffffffffffffffffffffffffffffffff161461095057610914610a16565b6040517f118cdaa70000000000000000000000000000000000000000000000000000000081526004016109479190610d29565b60405180910390fd5b565b60008060009054906101000a900473ffffffffffffffffffffffffffffffffffffffff169050816000806101000a81548173ffffffffffffffffffffffffffffffffffffffff021916908373ffffffffffffffffffffffffffffffffffffffff1602179055508173ffffffffffffffffffffffffffffffffffffffff168173ffffffffffffffffffffffffffffffffffffffff167f8be0079c531659141344cd1fd0a4f28419497f9722a3daafe3b4186f6b6457e060405160405180910390a35050565b600033905090565b6000604051905090565b600080fd5b600080fd5b600080fd5b600080fd5b6000601f19601f8301169050919050565b7f4e487b7100000000000000000000000000000000000000000000000000000000600052604160045260246000fd5b610a8582610a3c565b810181811067ffffffffffffffff82111715610aa457610aa3610a4d565b5b80604052505050565b6000610ab7610a1e565b9050610ac38282610a7c565b919050565b600067ffffffffffffffff821115610ae357610ae2610a4d565b5b610aec82610a3c565b9050602081019050919050565b82818337600083830152505050565b6000610b1b610b1684610ac8565b610aad565b905082815260208101848484011115610b3757610b36610a37565b5b610b42848285610af9565b509392505050565b600082601f830112610b5f57610b5e610a32565b5b8135610b6f848260208601610b08565b91505092915050565b600060ff82169050919050565b610b8e81610b78565b8114610b9957600080fd5b50565b600081359050610bab81610b85565b92915050565b6000819050919050565b610bc481610bb1565b8114610bcf57600080fd5b50565b600081359050610be181610bbb565b92915050565b600080600080600060a08688031215610c0357610c02610a28565b5b600086013567ffffffffffffffff811115610c2157610c20610a2d565b5b610c2d88828901610b4a565b9550506020610c3e88828901610b9c565b9450506040610c4f88828901610b9c565b9350506060610c6088828901610b9c565b9250506080610c7188828901610bd2565b9150509295509295909350565b610c8781610bb1565b82525050565b6000602082019050610ca26000830184610c7e565b92915050565b60008060408385031215610cbf57610cbe610a28565b5b6000610ccd85828601610bd2565b9250506020610cde85828601610bd2565b9150509250929050565b600073ffffffffffffffffffffffffffffffffffffffff82169050919050565b6000610d1382610ce8565b9050919050565b610d2381610d08565b82525050565b6000602082019050610d3e6000830184610d1a565b92915050565b600060208284031215610d5a57610d59610a28565b5b6000610d6884828501610bd2565b91505092915050565b600081519050919050565b600082825260208201905092915050565b60005b83811015610dab578082015181840152602081019050610d90565b60008484015250505050565b6000610dc282610d71565b610dcc8185610d7c565b9350610ddc818560208601610d8d565b610de581610a3c565b840191505092915050565b610df981610b78565b82525050565b600060c082019050610e146000830189610c7e565b8181036020830152610e268188610db7565b9050610e356040830187610df0565b610e426060830186610df0565b610e4f6080830185610df0565b610e5c60a0830184610c7e565b979650505050505050565b610e7081610d08565b8114610e7b57600080fd5b50565b600081359050610e8d81610e67565b92915050565b600060208284031215610ea957610ea8610a28565b5b6000610eb784828501610e7e565b91505092915050565b600081519050919050565b600082825260208201905092915050565b6000819050602082019050919050565b610ef581610bb1565b82525050565b6000610f078383610eec565b60208301905092915050565b6000602082019050919050565b6000610f2b82610ec0565b610f358185610ecb565b9350610f4083610edc565b8060005b83811015610f71578151610f588882610efb565b9750610f6383610f13565b925050600181019050610f44565b5085935050505092915050565b60006020820190508181036000830152610f988184610f20565b905092915050565b7f4e487b7100000000000000000000000000000000000000000000000000000000600052601160045260246000fd5b6000610fda82610bb1565b91507fffffffffffffffffffffffffffffffffffffffffffffffffffffffffffffffff820361100c5761100b610fa0565b5b600182019050919050565b7f4e487b7100000000000000000000000000000000000000000000000000000000600052602260045260246000fd5b6000600282049050600182168061105e57607f821691505b60208210810361107157611070611017565b5b50919050565b60008190508160005260206000209050919050565b60006020601f8301049050919050565b600082821b905092915050565b6000600883026110d97fffffffffffffffffffffffffffffffffffffffffffffffffffffffffffffffff8261109c565b6110e3868361109c565b95508019841693508086168417925050509392505050565b6000819050919050565b600061112061111b61111684610bb1565b6110fb565b610bb1565b9050919050565b6000819050919050565b61113a83611105565b61114e61114682611127565b8484546110a9565b825550505050565b600090565b611163611156565b61116e818484611131565b505050565b5b818110156111925761118760008261115b565b600181019050611174565b5050565b601f8211156111d7576111a881611077565b6111b18461108c565b810160208510156111c0578190505b6111d46111cc8561108c565b830182611173565b50505b505050565b600082821c905092915050565b60006111fa600019846008026111dc565b1980831691505092915050565b600061121383836111e9565b9150826002028217905092915050565b61122c82610d71565b67ffffffffffffffff81111561124557611244610a4d565b5b61124f8254611046565b61125a828285611196565b600060209050601f83116001811461128d576000841561127b578287015190505b6112858582611207565b8655506112ed565b601f19841661129b86611077565b60005b828110156112c35784890151825560018201915060208501945060208101905061129e565b868310156112e057848901516112dc601f8916826111e9565b8355505b6001600288020188555050505b505050505050565b6000604082019050818103600083015261130f8185610db7565b905061131e6020830184610c7e565b9392505050565b7f4e6f7420617574686f72697a6564000000000000000000000000000000000000600082015250565b600061135b600e83610d7c565b915061136682611325565b602082019050919050565b6000602082019050818103600083015261138a8161134e565b9050919050565b7f4e6f207261636572000000000000000000000000000000000000000000000000600082015250565b60006113c7600883610d7c565b91506113d282611391565b602082019050919050565b600060208201905081810360008301526113f6816113ba565b9050919050565b60006040820190506114126000830185610c7e565b61141f6020830184610c7e565b939250505056fea26469706673582212208a61f080a8e96f9f3fbc36057179a9d6d4861394d319c7c4713a2d9fb8517d2b64736f6c63430008140033",
  "linkReferences": {},
  "deployedLinkReferences": {}
}